{
	"Lottery.sol": {
		"Lottery": {
			"abi": [
				{
					"inputs": [],
					"stateMutability": "nonpayable",
					"type": "constructor"
				},
				{
					"inputs": [],
					"name": "getBalance",
					"outputs": [
						{
							"internalType": "uint256",
							"name": "",
							"type": "uint256"
						}
					],
					"stateMutability": "view",
					"type": "function"
				},
				{
					"inputs": [],
					"name": "manager",
					"outputs": [
						{
							"internalType": "address",
							"name": "",
							"type": "address"
						}
					],
					"stateMutability": "view",
					"type": "function"
				},
				{
					"inputs": [
						{
							"internalType": "uint256",
							"name": "",
							"type": "uint256"
						}
					],
					"name": "participants",
					"outputs": [
						{
							"internalType": "address payable",
							"name": "",
							"type": "address"
						}
					],
					"stateMutability": "view",
					"type": "function"
				},
				{
					"inputs": [],
					"name": "random",
					"outputs": [
						{
							"internalType": "uint256",
							"name": "",
							"type": "uint256"
						}
					],
					"stateMutability": "view",
					"type": "function"
				},
				{
					"inputs": [],
					"name": "selectWinner",
					"outputs": [],
					"stateMutability": "nonpayable",
					"type": "function"
				},
				{
					"stateMutability": "payable",
					"type": "receive"
				}
			],
			"devdoc": {
				"kind": "dev",
				"methods": {},
				"version": 1
			},
			"evm": {
				"assembly": "    /* \"Lottery.sol\":72:1022  contract Lottery{\r... */\n  mstore(0x40, 0x80)\n    /* \"Lottery.sol\":170:220  constructor(){\r... */\n  callvalue\n  dup1\n  iszero\n  tag_1\n  jumpi\n  0x00\n  dup1\n  revert\ntag_1:\n  pop\n    /* \"Lottery.sol\":202:212  msg.sender */\n  caller\n    /* \"Lottery.sol\":194:201  manager */\n  0x00\n  dup1\n    /* \"Lottery.sol\":194:212  manager=msg.sender */\n  0x0100\n  exp\n  dup2\n  sload\n  dup2\n  0xffffffffffffffffffffffffffffffffffffffff\n  mul\n  not\n  and\n  swap1\n  dup4\n  0xffffffffffffffffffffffffffffffffffffffff\n  and\n  mul\n  or\n  swap1\n  sstore\n  pop\n    /* \"Lottery.sol\":72:1022  contract Lottery{\r... */\n  dataSize(sub_0)\n  dup1\n  dataOffset(sub_0)\n  0x00\n  codecopy\n  0x00\n  return\nstop\n\nsub_0: assembly {\n        /* \"Lottery.sol\":72:1022  contract Lottery{\r... */\n      mstore(0x40, 0x80)\n      jumpi(tag_1, lt(calldatasize, 0x04))\n      shr(0xe0, calldataload(0x00))\n      dup1\n      0x12065fe0\n      eq\n      tag_3\n      jumpi\n      dup1\n      0x33a99e04\n      eq\n      tag_4\n      jumpi\n      dup1\n      0x35c1d349\n      eq\n      tag_5\n      jumpi\n      dup1\n      0x481c6a75\n      eq\n      tag_6\n      jumpi\n      dup1\n      0x5ec01e4d\n      eq\n      tag_7\n      jumpi\n      jump(tag_2)\n    tag_1:\n      jumpi(tag_2, calldatasize)\n        /* \"Lottery.sol\":284:291  1 ether */\n      0x0de0b6b3a7640000\n        /* \"Lottery.sol\":273:282  msg.value */\n      callvalue\n        /* \"Lottery.sol\":273:291  msg.value==1 ether */\n      eq\n        /* \"Lottery.sol\":265:292  require(msg.value==1 ether) */\n      tag_10\n      jumpi\n      0x00\n      dup1\n      revert\n    tag_10:\n        /* \"Lottery.sol\":303:315  participants */\n      0x01\n        /* \"Lottery.sol\":329:339  msg.sender */\n      caller\n        /* \"Lottery.sol\":303:341  participants.push(payable(msg.sender)) */\n      swap1\n      dup1\n      0x01\n      dup2\n      sload\n      add\n      dup1\n      dup3\n      sstore\n      dup1\n      swap2\n      pop\n      pop\n      0x01\n      swap1\n      sub\n      swap1\n      0x00\n      mstore\n      keccak256(0x00, 0x20)\n      add\n      0x00\n      swap1\n      swap2\n      swap1\n      swap2\n      swap1\n      swap2\n      0x0100\n      exp\n      dup2\n      sload\n      dup2\n      0xffffffffffffffffffffffffffffffffffffffff\n      mul\n      not\n      and\n      swap1\n      dup4\n      0xffffffffffffffffffffffffffffffffffffffff\n      and\n      mul\n      or\n      swap1\n      sstore\n      pop\n        /* \"Lottery.sol\":72:1022  contract Lottery{\r... */\n      stop\n    tag_2:\n      0x00\n      dup1\n      revert\n        /* \"Lottery.sol\":361:494  function getBalance() public view returns(uint){\r... */\n    tag_3:\n      callvalue\n      dup1\n      iszero\n      tag_12\n      jumpi\n      0x00\n      dup1\n      revert\n    tag_12:\n      pop\n      tag_13\n      tag_14\n      jump\t// in\n    tag_13:\n      mload(0x40)\n      tag_15\n      swap2\n      swap1\n      tag_16\n      jump\t// in\n    tag_15:\n      mload(0x40)\n      dup1\n      swap2\n      sub\n      swap1\n      return\n        /* \"Lottery.sol\":666:1019  function selectWinner() public{\r... */\n    tag_4:\n      callvalue\n      dup1\n      iszero\n      tag_17\n      jumpi\n      0x00\n      dup1\n      revert\n    tag_17:\n      pop\n      tag_18\n      tag_19\n      jump\t// in\n    tag_18:\n      stop\n        /* \"Lottery.sol\":124:161  address payable[] public participants */\n    tag_5:\n      callvalue\n      dup1\n      iszero\n      tag_20\n      jumpi\n      0x00\n      dup1\n      revert\n    tag_20:\n      pop\n      tag_21\n      0x04\n      dup1\n      calldatasize\n      sub\n      dup2\n      add\n      swap1\n      tag_22\n      swap2\n      swap1\n      tag_23\n      jump\t// in\n    tag_22:\n      tag_24\n      jump\t// in\n    tag_21:\n      mload(0x40)\n      tag_25\n      swap2\n      swap1\n      tag_26\n      jump\t// in\n    tag_25:\n      mload(0x40)\n      dup1\n      swap2\n      sub\n      swap1\n      return\n        /* \"Lottery.sol\":95:117  address public manager */\n    tag_6:\n      callvalue\n      dup1\n      iszero\n      tag_27\n      jumpi\n      0x00\n      dup1\n      revert\n    tag_27:\n      pop\n      tag_28\n      tag_29\n      jump\t// in\n    tag_28:\n      mload(0x40)\n      tag_30\n      swap2\n      swap1\n      tag_31\n      jump\t// in\n    tag_30:\n      mload(0x40)\n      dup1\n      swap2\n      sub\n      swap1\n      return\n        /* \"Lottery.sol\":502:658  function random() public view returns(uint){\r... */\n    tag_7:\n      callvalue\n      dup1\n      iszero\n      tag_32\n      jumpi\n      0x00\n      dup1\n      revert\n    tag_32:\n      pop\n      tag_33\n      tag_34\n      jump\t// in\n    tag_33:\n      mload(0x40)\n      tag_35\n      swap2\n      swap1\n      tag_16\n      jump\t// in\n    tag_35:\n      mload(0x40)\n      dup1\n      swap2\n      sub\n      swap1\n      return\n        /* \"Lottery.sol\":361:494  function getBalance() public view returns(uint){\r... */\n    tag_14:\n        /* \"Lottery.sol\":403:407  uint */\n      0x00\n        /* \"Lottery.sol\":439:446  manager */\n      dup1\n      0x00\n      swap1\n      sload\n      swap1\n      0x0100\n      exp\n      swap1\n      div\n      0xffffffffffffffffffffffffffffffffffffffff\n      and\n        /* \"Lottery.sol\":427:446  msg.sender==manager */\n      0xffffffffffffffffffffffffffffffffffffffff\n      and\n        /* \"Lottery.sol\":427:437  msg.sender */\n      caller\n        /* \"Lottery.sol\":427:446  msg.sender==manager */\n      0xffffffffffffffffffffffffffffffffffffffff\n      and\n      eq\n        /* \"Lottery.sol\":419:447  require(msg.sender==manager) */\n      tag_37\n      jumpi\n      0x00\n      dup1\n      revert\n    tag_37:\n        /* \"Lottery.sol\":465:486  address(this).balance */\n      selfbalance\n        /* \"Lottery.sol\":458:486  return address(this).balance */\n      swap1\n      pop\n        /* \"Lottery.sol\":361:494  function getBalance() public view returns(uint){\r... */\n      swap1\n      jump\t// out\n        /* \"Lottery.sol\":666:1019  function selectWinner() public{\r... */\n    tag_19:\n        /* \"Lottery.sol\":727:734  manager */\n      0x00\n      dup1\n      sload\n      swap1\n      0x0100\n      exp\n      swap1\n      div\n      0xffffffffffffffffffffffffffffffffffffffff\n      and\n        /* \"Lottery.sol\":715:734  msg.sender==manager */\n      0xffffffffffffffffffffffffffffffffffffffff\n      and\n        /* \"Lottery.sol\":715:725  msg.sender */\n      caller\n        /* \"Lottery.sol\":715:734  msg.sender==manager */\n      0xffffffffffffffffffffffffffffffffffffffff\n      and\n      eq\n        /* \"Lottery.sol\":707:735  require(msg.sender==manager) */\n      tag_39\n      jumpi\n      0x00\n      dup1\n      revert\n    tag_39:\n        /* \"Lottery.sol\":775:776  3 */\n      0x03\n        /* \"Lottery.sol\":754:766  participants */\n      0x01\n        /* \"Lottery.sol\":754:773  participants.length */\n      dup1\n      sload\n      swap1\n      pop\n        /* \"Lottery.sol\":754:776  participants.length>=3 */\n      lt\n      iszero\n        /* \"Lottery.sol\":746:777  require(participants.length>=3) */\n      tag_40\n      jumpi\n      0x00\n      dup1\n      revert\n    tag_40:\n        /* \"Lottery.sol\":788:794  uint r */\n      0x00\n        /* \"Lottery.sol\":795:803  random() */\n      tag_41\n        /* \"Lottery.sol\":795:801  random */\n      tag_34\n        /* \"Lottery.sol\":795:803  random() */\n      jump\t// in\n    tag_41:\n        /* \"Lottery.sol\":788:803  uint r=random() */\n      swap1\n      pop\n        /* \"Lottery.sol\":814:824  uint index */\n      0x00\n        /* \"Lottery.sol\":830:842  participants */\n      0x01\n        /* \"Lottery.sol\":830:849  participants.length */\n      dup1\n      sload\n      swap1\n      pop\n        /* \"Lottery.sol\":826:827  r */\n      dup3\n        /* \"Lottery.sol\":826:849  r % participants.length */\n      tag_42\n      swap2\n      swap1\n      tag_43\n      jump\t// in\n    tag_42:\n        /* \"Lottery.sol\":814:849  uint index= r % participants.length */\n      swap1\n      pop\n        /* \"Lottery.sol\":860:882  address payable winner */\n      0x00\n        /* \"Lottery.sol\":901:913  participants */\n      0x01\n        /* \"Lottery.sol\":914:919  index */\n      dup3\n        /* \"Lottery.sol\":901:920  participants[index] */\n      dup2\n      sload\n      dup2\n      lt\n      tag_44\n      jumpi\n      tag_45\n      tag_46\n      jump\t// in\n    tag_45:\n    tag_44:\n      swap1\n      0x00\n      mstore\n      keccak256(0x00, 0x20)\n      add\n      0x00\n      swap1\n      sload\n      swap1\n      0x0100\n      exp\n      swap1\n      div\n      0xffffffffffffffffffffffffffffffffffffffff\n      and\n        /* \"Lottery.sol\":893:920  winner= participants[index] */\n      swap1\n      pop\n        /* \"Lottery.sol\":931:937  winner */\n      dup1\n        /* \"Lottery.sol\":931:946  winner.transfer */\n      0xffffffffffffffffffffffffffffffffffffffff\n      and\n        /* \"Lottery.sol\":931:960  winner.transfer(getBalance()) */\n      0x08fc\n        /* \"Lottery.sol\":947:959  getBalance() */\n      tag_48\n        /* \"Lottery.sol\":947:957  getBalance */\n      tag_14\n        /* \"Lottery.sol\":947:959  getBalance() */\n      jump\t// in\n    tag_48:\n        /* \"Lottery.sol\":931:960  winner.transfer(getBalance()) */\n      swap1\n      dup2\n      iszero\n      mul\n      swap1\n      mload(0x40)\n      0x00\n      mload(0x40)\n      dup1\n      dup4\n      sub\n      dup2\n      dup6\n      dup9\n      dup9\n      call\n      swap4\n      pop\n      pop\n      pop\n      pop\n      iszero\n      dup1\n      iszero\n      tag_50\n      jumpi\n      returndatasize\n      0x00\n      dup1\n      returndatacopy\n      revert(0x00, returndatasize)\n    tag_50:\n      pop\n        /* \"Lottery.sol\":1009:1010  0 */\n      0x00\n        /* \"Lottery.sol\":986:1011  new address payable[] (0) */\n      0xffffffffffffffff\n      dup2\n      gt\n      iszero\n      tag_51\n      jumpi\n      tag_52\n      tag_53\n      jump\t// in\n    tag_52:\n    tag_51:\n      mload(0x40)\n      swap1\n      dup1\n      dup3\n      mstore\n      dup1\n      0x20\n      mul\n      0x20\n      add\n      dup3\n      add\n      0x40\n      mstore\n      dup1\n      iszero\n      tag_54\n      jumpi\n      dup2\n      0x20\n      add\n      0x20\n      dup3\n      mul\n      dup1\n      calldatasize\n      dup4\n      calldatacopy\n      dup1\n      dup3\n      add\n      swap2\n      pop\n      pop\n      swap1\n      pop\n    tag_54:\n      pop\n        /* \"Lottery.sol\":971:983  participants */\n      0x01\n        /* \"Lottery.sol\":971:1011  participants = new address payable[] (0) */\n      swap1\n      dup1\n      mload\n      swap1\n      0x20\n      add\n      swap1\n      tag_55\n      swap3\n      swap2\n      swap1\n      tag_56\n      jump\t// in\n    tag_55:\n      pop\n        /* \"Lottery.sol\":696:1019  {\r... */\n      pop\n      pop\n      pop\n        /* \"Lottery.sol\":666:1019  function selectWinner() public{\r... */\n      jump\t// out\n        /* \"Lottery.sol\":124:161  address payable[] public participants */\n    tag_24:\n      0x01\n      dup2\n      dup2\n      sload\n      dup2\n      lt\n      tag_57\n      jumpi\n      0x00\n      dup1\n      revert\n    tag_57:\n      swap1\n      0x00\n      mstore\n      keccak256(0x00, 0x20)\n      add\n      0x00\n      swap2\n      pop\n      sload\n      swap1\n      0x0100\n      exp\n      swap1\n      div\n      0xffffffffffffffffffffffffffffffffffffffff\n      and\n      dup2\n      jump\t// out\n        /* \"Lottery.sol\":95:117  address public manager */\n    tag_29:\n      0x00\n      dup1\n      sload\n      swap1\n      0x0100\n      exp\n      swap1\n      div\n      0xffffffffffffffffffffffffffffffffffffffff\n      and\n      dup2\n      jump\t// out\n        /* \"Lottery.sol\":502:658  function random() public view returns(uint){\r... */\n    tag_34:\n        /* \"Lottery.sol\":540:544  uint */\n      0x00\n        /* \"Lottery.sol\":595:611  block.difficulty */\n      difficulty\n        /* \"Lottery.sol\":612:627  block.timestamp */\n      timestamp\n        /* \"Lottery.sol\":628:640  participants */\n      0x01\n        /* \"Lottery.sol\":628:647  participants.length */\n      dup1\n      sload\n      swap1\n      pop\n        /* \"Lottery.sol\":578:648  abi.encodePacked(block.difficulty,block.timestamp,participants.length) */\n      add(0x20, mload(0x40))\n      tag_60\n      swap4\n      swap3\n      swap2\n      swap1\n      tag_61\n      jump\t// in\n    tag_60:\n      mload(0x40)\n      0x20\n      dup2\n      dup4\n      sub\n      sub\n      dup2\n      mstore\n      swap1\n      0x40\n      mstore\n        /* \"Lottery.sol\":568:649  keccak256(abi.encodePacked(block.difficulty,block.timestamp,participants.length)) */\n      dup1\n      mload\n      swap1\n      0x20\n      add\n      keccak256\n        /* \"Lottery.sol\":563:650  uint(keccak256(abi.encodePacked(block.difficulty,block.timestamp,participants.length))) */\n      0x00\n      shr\n        /* \"Lottery.sol\":556:650  return uint(keccak256(abi.encodePacked(block.difficulty,block.timestamp,participants.length))) */\n      swap1\n      pop\n        /* \"Lottery.sol\":502:658  function random() public view returns(uint){\r... */\n      swap1\n      jump\t// out\n    tag_56:\n      dup3\n      dup1\n      sload\n      dup3\n      dup3\n      sstore\n      swap1\n      0x00\n      mstore\n      keccak256(0x00, 0x20)\n      swap1\n      dup2\n      add\n      swap3\n      dup3\n      iszero\n      tag_62\n      jumpi\n      swap2\n      0x20\n      mul\n      dup3\n      add\n    tag_63:\n      dup3\n      dup2\n      gt\n      iszero\n      tag_64\n      jumpi\n      dup3\n      mload\n      dup3\n      exp(0x0100, 0x00)\n      dup2\n      sload\n      dup2\n      0xffffffffffffffffffffffffffffffffffffffff\n      mul\n      not\n      and\n      swap1\n      dup4\n      0xffffffffffffffffffffffffffffffffffffffff\n      and\n      mul\n      or\n      swap1\n      sstore\n      pop\n      swap2\n      0x20\n      add\n      swap2\n      swap1\n      0x01\n      add\n      swap1\n      jump(tag_63)\n    tag_64:\n    tag_62:\n      pop\n      swap1\n      pop\n      tag_65\n      swap2\n      swap1\n      tag_66\n      jump\t// in\n    tag_65:\n      pop\n      swap1\n      jump\t// out\n    tag_66:\n    tag_67:\n      dup1\n      dup3\n      gt\n      iszero\n      tag_68\n      jumpi\n      0x00\n      dup2\n      0x00\n      swap1\n      sstore\n      pop\n      0x01\n      add\n      jump(tag_67)\n    tag_68:\n      pop\n      swap1\n      jump\t// out\n        /* \"#utility.yul\":7:146   */\n    tag_70:\n        /* \"#utility.yul\":53:58   */\n      0x00\n        /* \"#utility.yul\":91:97   */\n      dup2\n        /* \"#utility.yul\":78:98   */\n      calldataload\n        /* \"#utility.yul\":69:98   */\n      swap1\n      pop\n        /* \"#utility.yul\":107:140   */\n      tag_72\n        /* \"#utility.yul\":134:139   */\n      dup2\n        /* \"#utility.yul\":107:140   */\n      tag_73\n      jump\t// in\n    tag_72:\n        /* \"#utility.yul\":7:146   */\n      swap3\n      swap2\n      pop\n      pop\n      jump\t// out\n        /* \"#utility.yul\":152:481   */\n    tag_23:\n        /* \"#utility.yul\":211:217   */\n      0x00\n        /* \"#utility.yul\":260:262   */\n      0x20\n        /* \"#utility.yul\":248:257   */\n      dup3\n        /* \"#utility.yul\":239:246   */\n      dup5\n        /* \"#utility.yul\":235:258   */\n      sub\n        /* \"#utility.yul\":231:263   */\n      slt\n        /* \"#utility.yul\":228:347   */\n      iszero\n      tag_75\n      jumpi\n        /* \"#utility.yul\":266:345   */\n      tag_76\n      tag_77\n      jump\t// in\n    tag_76:\n        /* \"#utility.yul\":228:347   */\n    tag_75:\n        /* \"#utility.yul\":386:387   */\n      0x00\n        /* \"#utility.yul\":411:464   */\n      tag_78\n        /* \"#utility.yul\":456:463   */\n      dup5\n        /* \"#utility.yul\":447:453   */\n      dup3\n        /* \"#utility.yul\":436:445   */\n      dup6\n        /* \"#utility.yul\":432:454   */\n      add\n        /* \"#utility.yul\":411:464   */\n      tag_70\n      jump\t// in\n    tag_78:\n        /* \"#utility.yul\":401:464   */\n      swap2\n      pop\n        /* \"#utility.yul\":357:474   */\n      pop\n        /* \"#utility.yul\":152:481   */\n      swap3\n      swap2\n      pop\n      pop\n      jump\t// out\n        /* \"#utility.yul\":487:629   */\n    tag_79:\n        /* \"#utility.yul\":590:622   */\n      tag_81\n        /* \"#utility.yul\":616:621   */\n      dup2\n        /* \"#utility.yul\":590:622   */\n      tag_82\n      jump\t// in\n    tag_81:\n        /* \"#utility.yul\":585:588   */\n      dup3\n        /* \"#utility.yul\":578:623   */\n      mstore\n        /* \"#utility.yul\":487:629   */\n      pop\n      pop\n      jump\t// out\n        /* \"#utility.yul\":635:753   */\n    tag_83:\n        /* \"#utility.yul\":722:746   */\n      tag_85\n        /* \"#utility.yul\":740:745   */\n      dup2\n        /* \"#utility.yul\":722:746   */\n      tag_86\n      jump\t// in\n    tag_85:\n        /* \"#utility.yul\":717:720   */\n      dup3\n        /* \"#utility.yul\":710:747   */\n      mstore\n        /* \"#utility.yul\":635:753   */\n      pop\n      pop\n      jump\t// out\n        /* \"#utility.yul\":759:877   */\n    tag_87:\n        /* \"#utility.yul\":846:870   */\n      tag_89\n        /* \"#utility.yul\":864:869   */\n      dup2\n        /* \"#utility.yul\":846:870   */\n      tag_90\n      jump\t// in\n    tag_89:\n        /* \"#utility.yul\":841:844   */\n      dup3\n        /* \"#utility.yul\":834:871   */\n      mstore\n        /* \"#utility.yul\":759:877   */\n      pop\n      pop\n      jump\t// out\n        /* \"#utility.yul\":883:1040   */\n    tag_91:\n        /* \"#utility.yul\":988:1033   */\n      tag_93\n        /* \"#utility.yul\":1008:1032   */\n      tag_94\n        /* \"#utility.yul\":1026:1031   */\n      dup3\n        /* \"#utility.yul\":1008:1032   */\n      tag_90\n      jump\t// in\n    tag_94:\n        /* \"#utility.yul\":988:1033   */\n      tag_95\n      jump\t// in\n    tag_93:\n        /* \"#utility.yul\":983:986   */\n      dup3\n        /* \"#utility.yul\":976:1034   */\n      mstore\n        /* \"#utility.yul\":883:1040   */\n      pop\n      pop\n      jump\t// out\n        /* \"#utility.yul\":1046:1584   */\n    tag_61:\n        /* \"#utility.yul\":1214:1217   */\n      0x00\n        /* \"#utility.yul\":1229:1304   */\n      tag_97\n        /* \"#utility.yul\":1300:1303   */\n      dup3\n        /* \"#utility.yul\":1291:1297   */\n      dup7\n        /* \"#utility.yul\":1229:1304   */\n      tag_91\n      jump\t// in\n    tag_97:\n        /* \"#utility.yul\":1329:1331   */\n      0x20\n        /* \"#utility.yul\":1324:1327   */\n      dup3\n        /* \"#utility.yul\":1320:1332   */\n      add\n        /* \"#utility.yul\":1313:1332   */\n      swap2\n      pop\n        /* \"#utility.yul\":1342:1417   */\n      tag_98\n        /* \"#utility.yul\":1413:1416   */\n      dup3\n        /* \"#utility.yul\":1404:1410   */\n      dup6\n        /* \"#utility.yul\":1342:1417   */\n      tag_91\n      jump\t// in\n    tag_98:\n        /* \"#utility.yul\":1442:1444   */\n      0x20\n        /* \"#utility.yul\":1437:1440   */\n      dup3\n        /* \"#utility.yul\":1433:1445   */\n      add\n        /* \"#utility.yul\":1426:1445   */\n      swap2\n      pop\n        /* \"#utility.yul\":1455:1530   */\n      tag_99\n        /* \"#utility.yul\":1526:1529   */\n      dup3\n        /* \"#utility.yul\":1517:1523   */\n      dup5\n        /* \"#utility.yul\":1455:1530   */\n      tag_91\n      jump\t// in\n    tag_99:\n        /* \"#utility.yul\":1555:1557   */\n      0x20\n        /* \"#utility.yul\":1550:1553   */\n      dup3\n        /* \"#utility.yul\":1546:1558   */\n      add\n        /* \"#utility.yul\":1539:1558   */\n      swap2\n      pop\n        /* \"#utility.yul\":1575:1578   */\n      dup2\n        /* \"#utility.yul\":1568:1578   */\n      swap1\n      pop\n        /* \"#utility.yul\":1046:1584   */\n      swap5\n      swap4\n      pop\n      pop\n      pop\n      pop\n      jump\t// out\n        /* \"#utility.yul\":1590:1812   */\n    tag_31:\n        /* \"#utility.yul\":1683:1687   */\n      0x00\n        /* \"#utility.yul\":1721:1723   */\n      0x20\n        /* \"#utility.yul\":1710:1719   */\n      dup3\n        /* \"#utility.yul\":1706:1724   */\n      add\n        /* \"#utility.yul\":1698:1724   */\n      swap1\n      pop\n        /* \"#utility.yul\":1734:1805   */\n      tag_101\n        /* \"#utility.yul\":1802:1803   */\n      0x00\n        /* \"#utility.yul\":1791:1800   */\n      dup4\n        /* \"#utility.yul\":1787:1804   */\n      add\n        /* \"#utility.yul\":1778:1784   */\n      dup5\n        /* \"#utility.yul\":1734:1805   */\n      tag_83\n      jump\t// in\n    tag_101:\n        /* \"#utility.yul\":1590:1812   */\n      swap3\n      swap2\n      pop\n      pop\n      jump\t// out\n        /* \"#utility.yul\":1818:2072   */\n    tag_26:\n        /* \"#utility.yul\":1927:1931   */\n      0x00\n        /* \"#utility.yul\":1965:1967   */\n      0x20\n        /* \"#utility.yul\":1954:1963   */\n      dup3\n        /* \"#utility.yul\":1950:1968   */\n      add\n        /* \"#utility.yul\":1942:1968   */\n      swap1\n      pop\n        /* \"#utility.yul\":1978:2065   */\n      tag_103\n        /* \"#utility.yul\":2062:2063   */\n      0x00\n        /* \"#utility.yul\":2051:2060   */\n      dup4\n        /* \"#utility.yul\":2047:2064   */\n      add\n        /* \"#utility.yul\":2038:2044   */\n      dup5\n        /* \"#utility.yul\":1978:2065   */\n      tag_79\n      jump\t// in\n    tag_103:\n        /* \"#utility.yul\":1818:2072   */\n      swap3\n      swap2\n      pop\n      pop\n      jump\t// out\n        /* \"#utility.yul\":2078:2300   */\n    tag_16:\n        /* \"#utility.yul\":2171:2175   */\n      0x00\n        /* \"#utility.yul\":2209:2211   */\n      0x20\n        /* \"#utility.yul\":2198:2207   */\n      dup3\n        /* \"#utility.yul\":2194:2212   */\n      add\n        /* \"#utility.yul\":2186:2212   */\n      swap1\n      pop\n        /* \"#utility.yul\":2222:2293   */\n      tag_105\n        /* \"#utility.yul\":2290:2291   */\n      0x00\n        /* \"#utility.yul\":2279:2288   */\n      dup4\n        /* \"#utility.yul\":2275:2292   */\n      add\n        /* \"#utility.yul\":2266:2272   */\n      dup5\n        /* \"#utility.yul\":2222:2293   */\n      tag_87\n      jump\t// in\n    tag_105:\n        /* \"#utility.yul\":2078:2300   */\n      swap3\n      swap2\n      pop\n      pop\n      jump\t// out\n        /* \"#utility.yul\":2387:2483   */\n    tag_86:\n        /* \"#utility.yul\":2424:2431   */\n      0x00\n        /* \"#utility.yul\":2453:2477   */\n      tag_109\n        /* \"#utility.yul\":2471:2476   */\n      dup3\n        /* \"#utility.yul\":2453:2477   */\n      tag_110\n      jump\t// in\n    tag_109:\n        /* \"#utility.yul\":2442:2477   */\n      swap1\n      pop\n        /* \"#utility.yul\":2387:2483   */\n      swap2\n      swap1\n      pop\n      jump\t// out\n        /* \"#utility.yul\":2489:2593   */\n    tag_82:\n        /* \"#utility.yul\":2534:2541   */\n      0x00\n        /* \"#utility.yul\":2563:2587   */\n      tag_112\n        /* \"#utility.yul\":2581:2586   */\n      dup3\n        /* \"#utility.yul\":2563:2587   */\n      tag_110\n      jump\t// in\n    tag_112:\n        /* \"#utility.yul\":2552:2587   */\n      swap1\n      pop\n        /* \"#utility.yul\":2489:2593   */\n      swap2\n      swap1\n      pop\n      jump\t// out\n        /* \"#utility.yul\":2599:2725   */\n    tag_110:\n        /* \"#utility.yul\":2636:2643   */\n      0x00\n        /* \"#utility.yul\":2676:2718   */\n      0xffffffffffffffffffffffffffffffffffffffff\n        /* \"#utility.yul\":2669:2674   */\n      dup3\n        /* \"#utility.yul\":2665:2719   */\n      and\n        /* \"#utility.yul\":2654:2719   */\n      swap1\n      pop\n        /* \"#utility.yul\":2599:2725   */\n      swap2\n      swap1\n      pop\n      jump\t// out\n        /* \"#utility.yul\":2731:2808   */\n    tag_90:\n        /* \"#utility.yul\":2768:2775   */\n      0x00\n        /* \"#utility.yul\":2797:2802   */\n      dup2\n        /* \"#utility.yul\":2786:2802   */\n      swap1\n      pop\n        /* \"#utility.yul\":2731:2808   */\n      swap2\n      swap1\n      pop\n      jump\t// out\n        /* \"#utility.yul\":2814:2893   */\n    tag_95:\n        /* \"#utility.yul\":2853:2860   */\n      0x00\n        /* \"#utility.yul\":2882:2887   */\n      dup2\n        /* \"#utility.yul\":2871:2887   */\n      swap1\n      pop\n        /* \"#utility.yul\":2814:2893   */\n      swap2\n      swap1\n      pop\n      jump\t// out\n        /* \"#utility.yul\":2899:3075   */\n    tag_43:\n        /* \"#utility.yul\":2931:2932   */\n      0x00\n        /* \"#utility.yul\":2948:2968   */\n      tag_117\n        /* \"#utility.yul\":2966:2967   */\n      dup3\n        /* \"#utility.yul\":2948:2968   */\n      tag_90\n      jump\t// in\n    tag_117:\n        /* \"#utility.yul\":2943:2968   */\n      swap2\n      pop\n        /* \"#utility.yul\":2982:3002   */\n      tag_118\n        /* \"#utility.yul\":3000:3001   */\n      dup4\n        /* \"#utility.yul\":2982:3002   */\n      tag_90\n      jump\t// in\n    tag_118:\n        /* \"#utility.yul\":2977:3002   */\n      swap3\n      pop\n        /* \"#utility.yul\":3021:3022   */\n      dup3\n        /* \"#utility.yul\":3011:3046   */\n      tag_119\n      jumpi\n        /* \"#utility.yul\":3026:3044   */\n      tag_120\n      tag_121\n      jump\t// in\n    tag_120:\n        /* \"#utility.yul\":3011:3046   */\n    tag_119:\n        /* \"#utility.yul\":3067:3068   */\n      dup3\n        /* \"#utility.yul\":3064:3065   */\n      dup3\n        /* \"#utility.yul\":3060:3069   */\n      mod\n        /* \"#utility.yul\":3055:3069   */\n      swap1\n      pop\n        /* \"#utility.yul\":2899:3075   */\n      swap3\n      swap2\n      pop\n      pop\n      jump\t// out\n        /* \"#utility.yul\":3081:3261   */\n    tag_121:\n        /* \"#utility.yul\":3129:3206   */\n      0x4e487b7100000000000000000000000000000000000000000000000000000000\n        /* \"#utility.yul\":3126:3127   */\n      0x00\n        /* \"#utility.yul\":3119:3207   */\n      mstore\n        /* \"#utility.yul\":3226:3230   */\n      0x12\n        /* \"#utility.yul\":3223:3224   */\n      0x04\n        /* \"#utility.yul\":3216:3231   */\n      mstore\n        /* \"#utility.yul\":3250:3254   */\n      0x24\n        /* \"#utility.yul\":3247:3248   */\n      0x00\n        /* \"#utility.yul\":3240:3255   */\n      revert\n        /* \"#utility.yul\":3267:3447   */\n    tag_46:\n        /* \"#utility.yul\":3315:3392   */\n      0x4e487b7100000000000000000000000000000000000000000000000000000000\n        /* \"#utility.yul\":3312:3313   */\n      0x00\n        /* \"#utility.yul\":3305:3393   */\n      mstore\n        /* \"#utility.yul\":3412:3416   */\n      0x32\n        /* \"#utility.yul\":3409:3410   */\n      0x04\n        /* \"#utility.yul\":3402:3417   */\n      mstore\n        /* \"#utility.yul\":3436:3440   */\n      0x24\n        /* \"#utility.yul\":3433:3434   */\n      0x00\n        /* \"#utility.yul\":3426:3441   */\n      revert\n        /* \"#utility.yul\":3453:3633   */\n    tag_53:\n        /* \"#utility.yul\":3501:3578   */\n      0x4e487b7100000000000000000000000000000000000000000000000000000000\n        /* \"#utility.yul\":3498:3499   */\n      0x00\n        /* \"#utility.yul\":3491:3579   */\n      mstore\n        /* \"#utility.yul\":3598:3602   */\n      0x41\n        /* \"#utility.yul\":3595:3596   */\n      0x04\n        /* \"#utility.yul\":3588:3603   */\n      mstore\n        /* \"#utility.yul\":3622:3626   */\n      0x24\n        /* \"#utility.yul\":3619:3620   */\n      0x00\n        /* \"#utility.yul\":3612:3627   */\n      revert\n        /* \"#utility.yul\":3762:3879   */\n    tag_77:\n        /* \"#utility.yul\":3871:3872   */\n      0x00\n        /* \"#utility.yul\":3868:3869   */\n      dup1\n        /* \"#utility.yul\":3861:3873   */\n      revert\n        /* \"#utility.yul\":3885:4007   */\n    tag_73:\n        /* \"#utility.yul\":3958:3982   */\n      tag_129\n        /* \"#utility.yul\":3976:3981   */\n      dup2\n        /* \"#utility.yul\":3958:3982   */\n      tag_90\n      jump\t// in\n    tag_129:\n        /* \"#utility.yul\":3951:3956   */\n      dup2\n        /* \"#utility.yul\":3948:3983   */\n      eq\n        /* \"#utility.yul\":3938:4001   */\n      tag_130\n      jumpi\n        /* \"#utility.yul\":3997:3998   */\n      0x00\n        /* \"#utility.yul\":3994:3995   */\n      dup1\n        /* \"#utility.yul\":3987:3999   */\n      revert\n        /* \"#utility.yul\":3938:4001   */\n    tag_130:\n        /* \"#utility.yul\":3885:4007   */\n      pop\n      jump\t// out\n\n    auxdata: 0xa2646970667358221220e36fa8b2fe37f982e053610e240539fc0ec49d9a9462d2ae272841d258cc559f64736f6c63430008070033\n}\n",
				"bytecode": {
					"linkReferences": {},
					"object": "608060405234801561001057600080fd5b50336000806101000a81548173ffffffffffffffffffffffffffffffffffffffff021916908373ffffffffffffffffffffffffffffffffffffffff160217905550610749806100606000396000f3fe60806040526004361061004e5760003560e01c806312065fe0146100d157806333a99e04146100fc57806335c1d34914610113578063481c6a75146101505780635ec01e4d1461017b576100cc565b366100cc57670de0b6b3a7640000341461006757600080fd5b6001339080600181540180825580915050600190039060005260206000200160009091909190916101000a81548173ffffffffffffffffffffffffffffffffffffffff021916908373ffffffffffffffffffffffffffffffffffffffff160217905550005b600080fd5b3480156100dd57600080fd5b506100e66101a6565b6040516100f391906105c6565b60405180910390f35b34801561010857600080fd5b50610111610207565b005b34801561011f57600080fd5b5061013a600480360381019061013591906104e2565b610389565b60405161014791906105ab565b60405180910390f35b34801561015c57600080fd5b506101656103c8565b6040516101729190610590565b60405180910390f35b34801561018757600080fd5b506101906103ec565b60405161019d91906105c6565b60405180910390f35b60008060009054906101000a900473ffffffffffffffffffffffffffffffffffffffff1673ffffffffffffffffffffffffffffffffffffffff163373ffffffffffffffffffffffffffffffffffffffff161461020157600080fd5b47905090565b60008054906101000a900473ffffffffffffffffffffffffffffffffffffffff1673ffffffffffffffffffffffffffffffffffffffff163373ffffffffffffffffffffffffffffffffffffffff161461025f57600080fd5b6003600180549050101561027257600080fd5b600061027c6103ec565b90506000600180549050826102919190610639565b90506000600182815481106102a9576102a8610699565b5b9060005260206000200160009054906101000a900473ffffffffffffffffffffffffffffffffffffffff1690508073ffffffffffffffffffffffffffffffffffffffff166108fc6102f86101a6565b9081150290604051600060405180830381858888f19350505050158015610323573d6000803e3d6000fd5b50600067ffffffffffffffff81111561033f5761033e6106c8565b5b60405190808252806020026020018201604052801561036d5781602001602082028036833780820191505090505b5060019080519060200190610383929190610426565b50505050565b6001818154811061039957600080fd5b906000526020600020016000915054906101000a900473ffffffffffffffffffffffffffffffffffffffff1681565b60008054906101000a900473ffffffffffffffffffffffffffffffffffffffff1681565b6000444260018054905060405160200161040893929190610553565b6040516020818303038152906040528051906020012060001c905090565b82805482825590600052602060002090810192821561049f579160200282015b8281111561049e5782518260006101000a81548173ffffffffffffffffffffffffffffffffffffffff021916908373ffffffffffffffffffffffffffffffffffffffff16021790555091602001919060010190610446565b5b5090506104ac91906104b0565b5090565b5b808211156104c95760008160009055506001016104b1565b5090565b6000813590506104dc816106fc565b92915050565b6000602082840312156104f8576104f76106f7565b5b6000610506848285016104cd565b91505092915050565b610518816105f3565b82525050565b610527816105e1565b82525050565b61053681610625565b82525050565b61054d61054882610625565b61062f565b82525050565b600061055f828661053c565b60208201915061056f828561053c565b60208201915061057f828461053c565b602082019150819050949350505050565b60006020820190506105a5600083018461051e565b92915050565b60006020820190506105c0600083018461050f565b92915050565b60006020820190506105db600083018461052d565b92915050565b60006105ec82610605565b9050919050565b60006105fe82610605565b9050919050565b600073ffffffffffffffffffffffffffffffffffffffff82169050919050565b6000819050919050565b6000819050919050565b600061064482610625565b915061064f83610625565b92508261065f5761065e61066a565b5b828206905092915050565b7f4e487b7100000000000000000000000000000000000000000000000000000000600052601260045260246000fd5b7f4e487b7100000000000000000000000000000000000000000000000000000000600052603260045260246000fd5b7f4e487b7100000000000000000000000000000000000000000000000000000000600052604160045260246000fd5b600080fd5b61070581610625565b811461071057600080fd5b5056fea2646970667358221220e36fa8b2fe37f982e053610e240539fc0ec49d9a9462d2ae272841d258cc559f64736f6c63430008070033",
					"opcodes": "PUSH1 0x80 PUSH1 0x40 MSTORE CALLVALUE DUP1 ISZERO PUSH2 0x10 JUMPI PUSH1 0x0 DUP1 REVERT JUMPDEST POP CALLER PUSH1 0x0 DUP1 PUSH2 0x100 EXP DUP2 SLOAD DUP2 PUSH20 0xFFFFFFFFFFFFFFFFFFFFFFFFFFFFFFFFFFFFFFFF MUL NOT AND SWAP1 DUP4 PUSH20 0xFFFFFFFFFFFFFFFFFFFFFFFFFFFFFFFFFFFFFFFF AND MUL OR SWAP1 SSTORE POP PUSH2 0x749 DUP1 PUSH2 0x60 PUSH1 0x0 CODECOPY PUSH1 0x0 RETURN INVALID PUSH1 0x80 PUSH1 0x40 MSTORE PUSH1 0x4 CALLDATASIZE LT PUSH2 0x4E JUMPI PUSH1 0x0 CALLDATALOAD PUSH1 0xE0 SHR DUP1 PUSH4 0x12065FE0 EQ PUSH2 0xD1 JUMPI DUP1 PUSH4 0x33A99E04 EQ PUSH2 0xFC JUMPI DUP1 PUSH4 0x35C1D349 EQ PUSH2 0x113 JUMPI DUP1 PUSH4 0x481C6A75 EQ PUSH2 0x150 JUMPI DUP1 PUSH4 0x5EC01E4D EQ PUSH2 0x17B JUMPI PUSH2 0xCC JUMP JUMPDEST CALLDATASIZE PUSH2 0xCC JUMPI PUSH8 0xDE0B6B3A7640000 CALLVALUE EQ PUSH2 0x67 JUMPI PUSH1 0x0 DUP1 REVERT JUMPDEST PUSH1 0x1 CALLER SWAP1 DUP1 PUSH1 0x1 DUP2 SLOAD ADD DUP1 DUP3 SSTORE DUP1 SWAP2 POP POP PUSH1 0x1 SWAP1 SUB SWAP1 PUSH1 0x0 MSTORE PUSH1 0x20 PUSH1 0x0 KECCAK256 ADD PUSH1 0x0 SWAP1 SWAP2 SWAP1 SWAP2 SWAP1 SWAP2 PUSH2 0x100 EXP DUP2 SLOAD DUP2 PUSH20 0xFFFFFFFFFFFFFFFFFFFFFFFFFFFFFFFFFFFFFFFF MUL NOT AND SWAP1 DUP4 PUSH20 0xFFFFFFFFFFFFFFFFFFFFFFFFFFFFFFFFFFFFFFFF AND MUL OR SWAP1 SSTORE POP STOP JUMPDEST PUSH1 0x0 DUP1 REVERT JUMPDEST CALLVALUE DUP1 ISZERO PUSH2 0xDD JUMPI PUSH1 0x0 DUP1 REVERT JUMPDEST POP PUSH2 0xE6 PUSH2 0x1A6 JUMP JUMPDEST PUSH1 0x40 MLOAD PUSH2 0xF3 SWAP2 SWAP1 PUSH2 0x5C6 JUMP JUMPDEST PUSH1 0x40 MLOAD DUP1 SWAP2 SUB SWAP1 RETURN JUMPDEST CALLVALUE DUP1 ISZERO PUSH2 0x108 JUMPI PUSH1 0x0 DUP1 REVERT JUMPDEST POP PUSH2 0x111 PUSH2 0x207 JUMP JUMPDEST STOP JUMPDEST CALLVALUE DUP1 ISZERO PUSH2 0x11F JUMPI PUSH1 0x0 DUP1 REVERT JUMPDEST POP PUSH2 0x13A PUSH1 0x4 DUP1 CALLDATASIZE SUB DUP2 ADD SWAP1 PUSH2 0x135 SWAP2 SWAP1 PUSH2 0x4E2 JUMP JUMPDEST PUSH2 0x389 JUMP JUMPDEST PUSH1 0x40 MLOAD PUSH2 0x147 SWAP2 SWAP1 PUSH2 0x5AB JUMP JUMPDEST PUSH1 0x40 MLOAD DUP1 SWAP2 SUB SWAP1 RETURN JUMPDEST CALLVALUE DUP1 ISZERO PUSH2 0x15C JUMPI PUSH1 0x0 DUP1 REVERT JUMPDEST POP PUSH2 0x165 PUSH2 0x3C8 JUMP JUMPDEST PUSH1 0x40 MLOAD PUSH2 0x172 SWAP2 SWAP1 PUSH2 0x590 JUMP JUMPDEST PUSH1 0x40 MLOAD DUP1 SWAP2 SUB SWAP1 RETURN JUMPDEST CALLVALUE DUP1 ISZERO PUSH2 0x187 JUMPI PUSH1 0x0 DUP1 REVERT JUMPDEST POP PUSH2 0x190 PUSH2 0x3EC JUMP JUMPDEST PUSH1 0x40 MLOAD PUSH2 0x19D SWAP2 SWAP1 PUSH2 0x5C6 JUMP JUMPDEST PUSH1 0x40 MLOAD DUP1 SWAP2 SUB SWAP1 RETURN JUMPDEST PUSH1 0x0 DUP1 PUSH1 0x0 SWAP1 SLOAD SWAP1 PUSH2 0x100 EXP SWAP1 DIV PUSH20 0xFFFFFFFFFFFFFFFFFFFFFFFFFFFFFFFFFFFFFFFF AND PUSH20 0xFFFFFFFFFFFFFFFFFFFFFFFFFFFFFFFFFFFFFFFF AND CALLER PUSH20 0xFFFFFFFFFFFFFFFFFFFFFFFFFFFFFFFFFFFFFFFF AND EQ PUSH2 0x201 JUMPI PUSH1 0x0 DUP1 REVERT JUMPDEST SELFBALANCE SWAP1 POP SWAP1 JUMP JUMPDEST PUSH1 0x0 DUP1 SLOAD SWAP1 PUSH2 0x100 EXP SWAP1 DIV PUSH20 0xFFFFFFFFFFFFFFFFFFFFFFFFFFFFFFFFFFFFFFFF AND PUSH20 0xFFFFFFFFFFFFFFFFFFFFFFFFFFFFFFFFFFFFFFFF AND CALLER PUSH20 0xFFFFFFFFFFFFFFFFFFFFFFFFFFFFFFFFFFFFFFFF AND EQ PUSH2 0x25F JUMPI PUSH1 0x0 DUP1 REVERT JUMPDEST PUSH1 0x3 PUSH1 0x1 DUP1 SLOAD SWAP1 POP LT ISZERO PUSH2 0x272 JUMPI PUSH1 0x0 DUP1 REVERT JUMPDEST PUSH1 0x0 PUSH2 0x27C PUSH2 0x3EC JUMP JUMPDEST SWAP1 POP PUSH1 0x0 PUSH1 0x1 DUP1 SLOAD SWAP1 POP DUP3 PUSH2 0x291 SWAP2 SWAP1 PUSH2 0x639 JUMP JUMPDEST SWAP1 POP PUSH1 0x0 PUSH1 0x1 DUP3 DUP2 SLOAD DUP2 LT PUSH2 0x2A9 JUMPI PUSH2 0x2A8 PUSH2 0x699 JUMP JUMPDEST JUMPDEST SWAP1 PUSH1 0x0 MSTORE PUSH1 0x20 PUSH1 0x0 KECCAK256 ADD PUSH1 0x0 SWAP1 SLOAD SWAP1 PUSH2 0x100 EXP SWAP1 DIV PUSH20 0xFFFFFFFFFFFFFFFFFFFFFFFFFFFFFFFFFFFFFFFF AND SWAP1 POP DUP1 PUSH20 0xFFFFFFFFFFFFFFFFFFFFFFFFFFFFFFFFFFFFFFFF AND PUSH2 0x8FC PUSH2 0x2F8 PUSH2 0x1A6 JUMP JUMPDEST SWAP1 DUP2 ISZERO MUL SWAP1 PUSH1 0x40 MLOAD PUSH1 0x0 PUSH1 0x40 MLOAD DUP1 DUP4 SUB DUP2 DUP6 DUP9 DUP9 CALL SWAP4 POP POP POP POP ISZERO DUP1 ISZERO PUSH2 0x323 JUMPI RETURNDATASIZE PUSH1 0x0 DUP1 RETURNDATACOPY RETURNDATASIZE PUSH1 0x0 REVERT JUMPDEST POP PUSH1 0x0 PUSH8 0xFFFFFFFFFFFFFFFF DUP2 GT ISZERO PUSH2 0x33F JUMPI PUSH2 0x33E PUSH2 0x6C8 JUMP JUMPDEST JUMPDEST PUSH1 0x40 MLOAD SWAP1 DUP1 DUP3 MSTORE DUP1 PUSH1 0x20 MUL PUSH1 0x20 ADD DUP3 ADD PUSH1 0x40 MSTORE DUP1 ISZERO PUSH2 0x36D JUMPI DUP2 PUSH1 0x20 ADD PUSH1 0x20 DUP3 MUL DUP1 CALLDATASIZE DUP4 CALLDATACOPY DUP1 DUP3 ADD SWAP2 POP POP SWAP1 POP JUMPDEST POP PUSH1 0x1 SWAP1 DUP1 MLOAD SWAP1 PUSH1 0x20 ADD SWAP1 PUSH2 0x383 SWAP3 SWAP2 SWAP1 PUSH2 0x426 JUMP JUMPDEST POP POP POP POP JUMP JUMPDEST PUSH1 0x1 DUP2 DUP2 SLOAD DUP2 LT PUSH2 0x399 JUMPI PUSH1 0x0 DUP1 REVERT JUMPDEST SWAP1 PUSH1 0x0 MSTORE PUSH1 0x20 PUSH1 0x0 KECCAK256 ADD PUSH1 0x0 SWAP2 POP SLOAD SWAP1 PUSH2 0x100 EXP SWAP1 DIV PUSH20 0xFFFFFFFFFFFFFFFFFFFFFFFFFFFFFFFFFFFFFFFF AND DUP2 JUMP JUMPDEST PUSH1 0x0 DUP1 SLOAD SWAP1 PUSH2 0x100 EXP SWAP1 DIV PUSH20 0xFFFFFFFFFFFFFFFFFFFFFFFFFFFFFFFFFFFFFFFF AND DUP2 JUMP JUMPDEST PUSH1 0x0 DIFFICULTY TIMESTAMP PUSH1 0x1 DUP1 SLOAD SWAP1 POP PUSH1 0x40 MLOAD PUSH1 0x20 ADD PUSH2 0x408 SWAP4 SWAP3 SWAP2 SWAP1 PUSH2 0x553 JUMP JUMPDEST PUSH1 0x40 MLOAD PUSH1 0x20 DUP2 DUP4 SUB SUB DUP2 MSTORE SWAP1 PUSH1 0x40 MSTORE DUP1 MLOAD SWAP1 PUSH1 0x20 ADD KECCAK256 PUSH1 0x0 SHR SWAP1 POP SWAP1 JUMP JUMPDEST DUP3 DUP1 SLOAD DUP3 DUP3 SSTORE SWAP1 PUSH1 0x0 MSTORE PUSH1 0x20 PUSH1 0x0 KECCAK256 SWAP1 DUP2 ADD SWAP3 DUP3 ISZERO PUSH2 0x49F JUMPI SWAP2 PUSH1 0x20 MUL DUP3 ADD JUMPDEST DUP3 DUP2 GT ISZERO PUSH2 0x49E JUMPI DUP3 MLOAD DUP3 PUSH1 0x0 PUSH2 0x100 EXP DUP2 SLOAD DUP2 PUSH20 0xFFFFFFFFFFFFFFFFFFFFFFFFFFFFFFFFFFFFFFFF MUL NOT AND SWAP1 DUP4 PUSH20 0xFFFFFFFFFFFFFFFFFFFFFFFFFFFFFFFFFFFFFFFF AND MUL OR SWAP1 SSTORE POP SWAP2 PUSH1 0x20 ADD SWAP2 SWAP1 PUSH1 0x1 ADD SWAP1 PUSH2 0x446 JUMP JUMPDEST JUMPDEST POP SWAP1 POP PUSH2 0x4AC SWAP2 SWAP1 PUSH2 0x4B0 JUMP JUMPDEST POP SWAP1 JUMP JUMPDEST JUMPDEST DUP1 DUP3 GT ISZERO PUSH2 0x4C9 JUMPI PUSH1 0x0 DUP2 PUSH1 0x0 SWAP1 SSTORE POP PUSH1 0x1 ADD PUSH2 0x4B1 JUMP JUMPDEST POP SWAP1 JUMP JUMPDEST PUSH1 0x0 DUP2 CALLDATALOAD SWAP1 POP PUSH2 0x4DC DUP2 PUSH2 0x6FC JUMP JUMPDEST SWAP3 SWAP2 POP POP JUMP JUMPDEST PUSH1 0x0 PUSH1 0x20 DUP3 DUP5 SUB SLT ISZERO PUSH2 0x4F8 JUMPI PUSH2 0x4F7 PUSH2 0x6F7 JUMP JUMPDEST JUMPDEST PUSH1 0x0 PUSH2 0x506 DUP5 DUP3 DUP6 ADD PUSH2 0x4CD JUMP JUMPDEST SWAP2 POP POP SWAP3 SWAP2 POP POP JUMP JUMPDEST PUSH2 0x518 DUP2 PUSH2 0x5F3 JUMP JUMPDEST DUP3 MSTORE POP POP JUMP JUMPDEST PUSH2 0x527 DUP2 PUSH2 0x5E1 JUMP JUMPDEST DUP3 MSTORE POP POP JUMP JUMPDEST PUSH2 0x536 DUP2 PUSH2 0x625 JUMP JUMPDEST DUP3 MSTORE POP POP JUMP JUMPDEST PUSH2 0x54D PUSH2 0x548 DUP3 PUSH2 0x625 JUMP JUMPDEST PUSH2 0x62F JUMP JUMPDEST DUP3 MSTORE POP POP JUMP JUMPDEST PUSH1 0x0 PUSH2 0x55F DUP3 DUP7 PUSH2 0x53C JUMP JUMPDEST PUSH1 0x20 DUP3 ADD SWAP2 POP PUSH2 0x56F DUP3 DUP6 PUSH2 0x53C JUMP JUMPDEST PUSH1 0x20 DUP3 ADD SWAP2 POP PUSH2 0x57F DUP3 DUP5 PUSH2 0x53C JUMP JUMPDEST PUSH1 0x20 DUP3 ADD SWAP2 POP DUP2 SWAP1 POP SWAP5 SWAP4 POP POP POP POP JUMP JUMPDEST PUSH1 0x0 PUSH1 0x20 DUP3 ADD SWAP1 POP PUSH2 0x5A5 PUSH1 0x0 DUP4 ADD DUP5 PUSH2 0x51E JUMP JUMPDEST SWAP3 SWAP2 POP POP JUMP JUMPDEST PUSH1 0x0 PUSH1 0x20 DUP3 ADD SWAP1 POP PUSH2 0x5C0 PUSH1 0x0 DUP4 ADD DUP5 PUSH2 0x50F JUMP JUMPDEST SWAP3 SWAP2 POP POP JUMP JUMPDEST PUSH1 0x0 PUSH1 0x20 DUP3 ADD SWAP1 POP PUSH2 0x5DB PUSH1 0x0 DUP4 ADD DUP5 PUSH2 0x52D JUMP JUMPDEST SWAP3 SWAP2 POP POP JUMP JUMPDEST PUSH1 0x0 PUSH2 0x5EC DUP3 PUSH2 0x605 JUMP JUMPDEST SWAP1 POP SWAP2 SWAP1 POP JUMP JUMPDEST PUSH1 0x0 PUSH2 0x5FE DUP3 PUSH2 0x605 JUMP JUMPDEST SWAP1 POP SWAP2 SWAP1 POP JUMP JUMPDEST PUSH1 0x0 PUSH20 0xFFFFFFFFFFFFFFFFFFFFFFFFFFFFFFFFFFFFFFFF DUP3 AND SWAP1 POP SWAP2 SWAP1 POP JUMP JUMPDEST PUSH1 0x0 DUP2 SWAP1 POP SWAP2 SWAP1 POP JUMP JUMPDEST PUSH1 0x0 DUP2 SWAP1 POP SWAP2 SWAP1 POP JUMP JUMPDEST PUSH1 0x0 PUSH2 0x644 DUP3 PUSH2 0x625 JUMP JUMPDEST SWAP2 POP PUSH2 0x64F DUP4 PUSH2 0x625 JUMP JUMPDEST SWAP3 POP DUP3 PUSH2 0x65F JUMPI PUSH2 0x65E PUSH2 0x66A JUMP JUMPDEST JUMPDEST DUP3 DUP3 MOD SWAP1 POP SWAP3 SWAP2 POP POP JUMP JUMPDEST PUSH32 0x4E487B7100000000000000000000000000000000000000000000000000000000 PUSH1 0x0 MSTORE PUSH1 0x12 PUSH1 0x4 MSTORE PUSH1 0x24 PUSH1 0x0 REVERT JUMPDEST PUSH32 0x4E487B7100000000000000000000000000000000000000000000000000000000 PUSH1 0x0 MSTORE PUSH1 0x32 PUSH1 0x4 MSTORE PUSH1 0x24 PUSH1 0x0 REVERT JUMPDEST PUSH32 0x4E487B7100000000000000000000000000000000000000000000000000000000 PUSH1 0x0 MSTORE PUSH1 0x41 PUSH1 0x4 MSTORE PUSH1 0x24 PUSH1 0x0 REVERT JUMPDEST PUSH1 0x0 DUP1 REVERT JUMPDEST PUSH2 0x705 DUP2 PUSH2 0x625 JUMP JUMPDEST DUP2 EQ PUSH2 0x710 JUMPI PUSH1 0x0 DUP1 REVERT JUMPDEST POP JUMP INVALID LOG2 PUSH5 0x6970667358 0x22 SLT KECCAK256 0xE3 PUSH16 0xA8B2FE37F982E053610E240539FC0EC4 SWAP14 SWAP11 SWAP5 PUSH3 0xD2AE27 0x28 COINBASE 0xD2 PC 0xCC SSTORE SWAP16 PUSH5 0x736F6C6343 STOP ADDMOD SMOD STOP CALLER "
				},
				"gasEstimates": {
					"creation": {
						"codeDepositCost": "373000",
						"executionCost": "24677",
						"totalCost": "397677"
					},
					"external": {
						"getBalance()": "2487",
						"manager()": "2555",
						"participants(uint256)": "4978",
						"random()": "infinite",
						"selectWinner()": "infinite"
					}
				},
				"methodIdentifiers": {
					"getBalance()": "12065fe0",
					"manager()": "481c6a75",
					"participants(uint256)": "35c1d349",
					"random()": "5ec01e4d",
					"selectWinner()": "33a99e04"
				}
			},
			"storageLayout": {
				"storage": [
					{
						"astId": 3,
						"contract": "Lottery.sol:Lottery",
						"label": "manager",
						"offset": 0,
						"slot": "0",
						"type": "t_address"
					},
					{
						"astId": 6,
						"contract": "Lottery.sol:Lottery",
						"label": "participants",
						"offset": 0,
						"slot": "1",
						"type": "t_array(t_address_payable)dyn_storage"
					}
				],
				"types": {
					"t_address": {
						"encoding": "inplace",
						"label": "address",
						"numberOfBytes": "20"
					},
					"t_address_payable": {
						"encoding": "inplace",
						"label": "address payable",
						"numberOfBytes": "20"
					},
					"t_array(t_address_payable)dyn_storage": {
						"base": "t_address_payable",
						"encoding": "dynamic_array",
						"label": "address payable[]",
						"numberOfBytes": "32"
					}
				}
			},
			"userdoc": {
				"kind": "user",
				"methods": {},
				"version": 1
			}
		}
	}
}